{
  "contractName": "Admin",
  "abi": [
    {
      "anonymous": false,
      "inputs": [
        {
          "indexed": false,
          "internalType": "address",
          "name": "_wallet",
          "type": "address"
        },
        {
          "indexed": false,
          "internalType": "uint8",
          "name": "_adminType",
          "type": "uint8"
        }
      ],
      "name": "AdminAdded",
      "type": "event"
    },
    {
      "anonymous": false,
      "inputs": [
        {
          "indexed": false,
          "internalType": "address",
          "name": "_wallet",
          "type": "address"
        }
      ],
      "name": "AdminRemoved",
      "type": "event"
    },
    {
      "anonymous": false,
      "inputs": [
        {
          "indexed": false,
          "internalType": "address",
          "name": "_wallet",
          "type": "address"
        },
        {
          "indexed": false,
          "internalType": "bool",
          "name": "_status",
          "type": "bool"
        }
      ],
      "name": "AdminStatusChanged",
      "type": "event"
    },
    {
      "anonymous": false,
      "inputs": [
        {
          "indexed": false,
          "internalType": "address",
          "name": "_wallet",
          "type": "address"
        },
        {
          "indexed": false,
          "internalType": "uint8",
          "name": "_adminType",
          "type": "uint8"
        }
      ],
      "name": "AdminUpdated",
      "type": "event"
    },
    {
      "anonymous": false,
      "inputs": [
        {
          "indexed": true,
          "internalType": "address",
          "name": "previousOwner",
          "type": "address"
        },
        {
          "indexed": true,
          "internalType": "address",
          "name": "newOwner",
          "type": "address"
        }
      ],
      "name": "OwnershipTransferred",
      "type": "event"
    },
    {
      "inputs": [],
      "name": "owner",
      "outputs": [
        {
          "internalType": "address",
          "name": "",
          "type": "address"
        }
      ],
      "stateMutability": "view",
      "type": "function",
      "constant": true
    },
    {
      "inputs": [],
      "name": "renounceOwnership",
      "outputs": [],
      "stateMutability": "nonpayable",
      "type": "function"
    },
    {
      "inputs": [
        {
          "internalType": "address",
          "name": "newOwner",
          "type": "address"
        }
      ],
      "name": "transferOwnership",
      "outputs": [],
      "stateMutability": "nonpayable",
      "type": "function"
    },
    {
      "inputs": [
        {
          "internalType": "address",
          "name": "_wallet",
          "type": "address"
        }
      ],
      "name": "isExisted",
      "outputs": [
        {
          "internalType": "bool",
          "name": "",
          "type": "bool"
        }
      ],
      "stateMutability": "view",
      "type": "function",
      "constant": true
    },
    {
      "inputs": [
        {
          "internalType": "address",
          "name": "_wallet",
          "type": "address"
        },
        {
          "internalType": "uint8",
          "name": "_adminType",
          "type": "uint8"
        }
      ],
      "name": "addAdmin",
      "outputs": [],
      "stateMutability": "nonpayable",
      "type": "function"
    },
    {
      "inputs": [
        {
          "internalType": "address",
          "name": "_wallet",
          "type": "address"
        }
      ],
      "name": "deactiveAdmin",
      "outputs": [],
      "stateMutability": "nonpayable",
      "type": "function"
    },
    {
      "inputs": [
        {
          "internalType": "address",
          "name": "_wallet",
          "type": "address"
        }
      ],
      "name": "activateAdmin",
      "outputs": [],
      "stateMutability": "nonpayable",
      "type": "function"
    },
    {
      "inputs": [
        {
          "internalType": "address",
          "name": "_wallet",
          "type": "address"
        }
      ],
      "name": "getAdminType",
      "outputs": [
        {
          "internalType": "uint8",
          "name": "",
          "type": "uint8"
        }
      ],
      "stateMutability": "view",
      "type": "function",
      "constant": true
    },
    {
      "inputs": [
        {
          "internalType": "address",
          "name": "_wallet",
          "type": "address"
        },
        {
          "internalType": "uint8",
          "name": "_adminType",
          "type": "uint8"
        }
      ],
      "name": "updateAdminType",
      "outputs": [],
      "stateMutability": "nonpayable",
      "type": "function"
    },
    {
      "inputs": [
        {
          "internalType": "address",
          "name": "_wallet",
          "type": "address"
        }
      ],
      "name": "removeAdmin",
      "outputs": [],
      "stateMutability": "nonpayable",
      "type": "function"
    },
    {
      "inputs": [
        {
          "internalType": "address",
          "name": "_wallet",
          "type": "address"
        }
      ],
      "name": "isAdmin",
      "outputs": [
        {
          "internalType": "bool",
          "name": "",
          "type": "bool"
        }
      ],
      "stateMutability": "view",
      "type": "function",
      "constant": true
    }
  ],
  "bytecode": "0x608060405234801561001057600080fd5b5061002d61002261003260201b60201c565b61003a60201b60201c565b6100fe565b600033905090565b60008060009054906101000a900473ffffffffffffffffffffffffffffffffffffffff169050816000806101000a81548173ffffffffffffffffffffffffffffffffffffffff021916908373ffffffffffffffffffffffffffffffffffffffff1602179055508173ffffffffffffffffffffffffffffffffffffffff168173ffffffffffffffffffffffffffffffffffffffff167f8be0079c531659141344cd1fd0a4f28419497f9722a3daafe3b4186f6b6457e060405160405180910390a35050565b611a558061010d6000396000f3fe608060405234801561001057600080fd5b50600436106100a95760003560e01c8063715018a611610071578063715018a61461014e578063891d7bd8146101585780638da5cb5b14610174578063aaad0c8414610192578063cd80256d146101c2578063f2fde38b146101f2576100a9565b80631785f53c146100ae5780631af1a768146100ca57806324d7806c146100e65780633b08559c14610116578063532d6a2914610132575b600080fd5b6100c860048036038101906100c39190611363565b61020e565b005b6100e460048036038101906100df9190611363565b6105b5565b005b61010060048036038101906100fb9190611363565b6107cd565b60405161010d91906113ab565b60405180910390f35b610130600480360381019061012b9190611363565b61088d565b005b61014c600480360381019061014791906113ff565b610aa4565b005b610156610d7f565b005b610172600480360381019061016d91906113ff565b610d93565b005b61017c610faa565b604051610189919061144e565b60405180910390f35b6101ac60048036038101906101a79190611363565b610fd3565b6040516101b991906113ab565b60405180910390f35b6101dc60048036038101906101d79190611363565b611021565b6040516101e99190611478565b60405180910390f35b61020c60048036038101906102079190611363565b611133565b005b80600073ffffffffffffffffffffffffffffffffffffffff168173ffffffffffffffffffffffffffffffffffffffff160361027e576040517f08c379a0000000000000000000000000000000000000000000000000000000008152600401610275906114f0565b60405180910390fd5b81610287610faa565b73ffffffffffffffffffffffffffffffffffffffff168173ffffffffffffffffffffffffffffffffffffffff16036102f4576040517f08c379a00000000000000000000000000000000000000000000000000000000081526004016102eb9061155c565b60405180910390fd5b6102fd83610fd3565b61033c576040517f08c379a0000000000000000000000000000000000000000000000000000000008152600401610333906115c8565b60405180910390fd5b600180808054905061034e9190611621565b8154811061035f5761035e611655565b5b9060005260206000200160009054906101000a900473ffffffffffffffffffffffffffffffffffffffff16600180600260008773ffffffffffffffffffffffffffffffffffffffff1673ffffffffffffffffffffffffffffffffffffffff168152602001908152602001600020600001546103da9190611621565b815481106103eb576103ea611655565b5b9060005260206000200160006101000a81548173ffffffffffffffffffffffffffffffffffffffff021916908373ffffffffffffffffffffffffffffffffffffffff160217905550600180548061044557610444611684565b5b6001900381819060005260206000200160006101000a81549073ffffffffffffffffffffffffffffffffffffffff021916905590556000600260008573ffffffffffffffffffffffffffffffffffffffff1673ffffffffffffffffffffffffffffffffffffffff168152602001908152602001600020600001819055506000600260008573ffffffffffffffffffffffffffffffffffffffff1673ffffffffffffffffffffffffffffffffffffffff16815260200190815260200160002060010160006101000a81548160ff021916908360ff1602179055506000600260008573ffffffffffffffffffffffffffffffffffffffff1673ffffffffffffffffffffffffffffffffffffffff16815260200190815260200160002060010160016101000a81548160ff0219169083151502179055507fa3b62bc36326052d97ea62d63c3d60308ed4c3ea8ac079dd8499f1e9c4f80c0f836040516105a8919061144e565b60405180910390a1505050565b6105bd6111b6565b80600073ffffffffffffffffffffffffffffffffffffffff168173ffffffffffffffffffffffffffffffffffffffff160361062d576040517f08c379a0000000000000000000000000000000000000000000000000000000008152600401610624906114f0565b60405180910390fd5b81610636610faa565b73ffffffffffffffffffffffffffffffffffffffff168173ffffffffffffffffffffffffffffffffffffffff16036106a3576040517f08c379a000000000000000000000000000000000000000000000000000000000815260040161069a9061155c565b60405180910390fd5b600260008473ffffffffffffffffffffffffffffffffffffffff1673ffffffffffffffffffffffffffffffffffffffff16815260200190815260200160002060010160019054906101000a900460ff1615610733576040517f08c379a000000000000000000000000000000000000000000000000000000000815260040161072a906116ff565b60405180910390fd5b6001600260008573ffffffffffffffffffffffffffffffffffffffff1673ffffffffffffffffffffffffffffffffffffffff16815260200190815260200160002060010160016101000a81548160ff0219169083151502179055507fc63c72d6995119c079ef24c02679d49838905c8e81df9e632011b914e6f592f68360016040516107c092919061171f565b60405180910390a1505050565b600081600073ffffffffffffffffffffffffffffffffffffffff168173ffffffffffffffffffffffffffffffffffffffff160361083f576040517f08c379a0000000000000000000000000000000000000000000000000000000008152600401610836906114f0565b60405180910390fd5b6000600260008573ffffffffffffffffffffffffffffffffffffffff1673ffffffffffffffffffffffffffffffffffffffff1681526020019081526020016000206000015411915050919050565b6108956111b6565b80600073ffffffffffffffffffffffffffffffffffffffff168173ffffffffffffffffffffffffffffffffffffffff1603610905576040517f08c379a00000000000000000000000000000000000000000000000000000000081526004016108fc906114f0565b60405180910390fd5b8161090e610faa565b73ffffffffffffffffffffffffffffffffffffffff168173ffffffffffffffffffffffffffffffffffffffff160361097b576040517f08c379a00000000000000000000000000000000000000000000000000000000081526004016109729061155c565b60405180910390fd5b600260008473ffffffffffffffffffffffffffffffffffffffff1673ffffffffffffffffffffffffffffffffffffffff16815260200190815260200160002060010160019054906101000a900460ff16610a0a576040517f08c379a0000000000000000000000000000000000000000000000000000000008152600401610a0190611794565b60405180910390fd5b6000600260008573ffffffffffffffffffffffffffffffffffffffff1673ffffffffffffffffffffffffffffffffffffffff16815260200190815260200160002060010160016101000a81548160ff0219169083151502179055507fc63c72d6995119c079ef24c02679d49838905c8e81df9e632011b914e6f592f6836000604051610a9792919061171f565b60405180910390a1505050565b610aac6111b6565b81600073ffffffffffffffffffffffffffffffffffffffff168173ffffffffffffffffffffffffffffffffffffffff1603610b1c576040517f08c379a0000000000000000000000000000000000000000000000000000000008152600401610b13906114f0565b60405180910390fd5b82610b25610faa565b73ffffffffffffffffffffffffffffffffffffffff168173ffffffffffffffffffffffffffffffffffffffff1603610b92576040517f08c379a0000000000000000000000000000000000000000000000000000000008152600401610b899061155c565b60405180910390fd5b610b9b84610fd3565b15610bdb576040517f08c379a0000000000000000000000000000000000000000000000000000000008152600401610bd290611800565b60405180910390fd5b6001849080600181540180825580915050600190039060005260206000200160009091909190916101000a81548173ffffffffffffffffffffffffffffffffffffffff021916908373ffffffffffffffffffffffffffffffffffffffff160217905550600180549050600260008673ffffffffffffffffffffffffffffffffffffffff1673ffffffffffffffffffffffffffffffffffffffff1681526020019081526020016000206000018190555082600260008673ffffffffffffffffffffffffffffffffffffffff1673ffffffffffffffffffffffffffffffffffffffff16815260200190815260200160002060010160006101000a81548160ff021916908360ff1602179055506001600260008673ffffffffffffffffffffffffffffffffffffffff1673ffffffffffffffffffffffffffffffffffffffff16815260200190815260200160002060010160016101000a81548160ff0219169083151502179055507fecf816d8795961f614721716742bbd214a36aa170e0c5b3223b0da0604cbcf498484604051610d71929190611820565b60405180910390a150505050565b610d876111b6565b610d916000611234565b565b81600073ffffffffffffffffffffffffffffffffffffffff168173ffffffffffffffffffffffffffffffffffffffff1603610e03576040517f08c379a0000000000000000000000000000000000000000000000000000000008152600401610dfa906114f0565b60405180910390fd5b82610e0c610faa565b73ffffffffffffffffffffffffffffffffffffffff168173ffffffffffffffffffffffffffffffffffffffff1603610e79576040517f08c379a0000000000000000000000000000000000000000000000000000000008152600401610e709061155c565b60405180910390fd5b600260008573ffffffffffffffffffffffffffffffffffffffff1673ffffffffffffffffffffffffffffffffffffffff16815260200190815260200160002060010160009054906101000a900460ff1660ff168360ff1603610f10576040517f08c379a0000000000000000000000000000000000000000000000000000000008152600401610f0790611895565b60405180910390fd5b82600260008673ffffffffffffffffffffffffffffffffffffffff1673ffffffffffffffffffffffffffffffffffffffff16815260200190815260200160002060010160006101000a81548160ff021916908360ff1602179055507f6fb1a38ba553e27e039c475bfdab50eb2d0ef2a8bd05b62b9b829f7217172b118484604051610f9c929190611820565b60405180910390a150505050565b60008060009054906101000a900473ffffffffffffffffffffffffffffffffffffffff16905090565b600080600260008473ffffffffffffffffffffffffffffffffffffffff1673ffffffffffffffffffffffffffffffffffffffff16815260200190815260200160002060000154119050919050565b600081600073ffffffffffffffffffffffffffffffffffffffff168173ffffffffffffffffffffffffffffffffffffffff1603611093576040517f08c379a000000000000000000000000000000000000000000000000000000000815260040161108a906114f0565b60405180910390fd5b61109c83610fd3565b6110db576040517f08c379a00000000000000000000000000000000000000000000000000000000081526004016110d290611901565b60405180910390fd5b600260008473ffffffffffffffffffffffffffffffffffffffff1673ffffffffffffffffffffffffffffffffffffffff16815260200190815260200160002060010160009054906101000a900460ff16915050919050565b61113b6111b6565b600073ffffffffffffffffffffffffffffffffffffffff168173ffffffffffffffffffffffffffffffffffffffff16036111aa576040517f08c379a00000000000000000000000000000000000000000000000000000000081526004016111a190611993565b60405180910390fd5b6111b381611234565b50565b6111be6112f8565b73ffffffffffffffffffffffffffffffffffffffff166111dc610faa565b73ffffffffffffffffffffffffffffffffffffffff1614611232576040517f08c379a0000000000000000000000000000000000000000000000000000000008152600401611229906119ff565b60405180910390fd5b565b60008060009054906101000a900473ffffffffffffffffffffffffffffffffffffffff169050816000806101000a81548173ffffffffffffffffffffffffffffffffffffffff021916908373ffffffffffffffffffffffffffffffffffffffff1602179055508173ffffffffffffffffffffffffffffffffffffffff168173ffffffffffffffffffffffffffffffffffffffff167f8be0079c531659141344cd1fd0a4f28419497f9722a3daafe3b4186f6b6457e060405160405180910390a35050565b600033905090565b600080fd5b600073ffffffffffffffffffffffffffffffffffffffff82169050919050565b600061133082611305565b9050919050565b61134081611325565b811461134b57600080fd5b50565b60008135905061135d81611337565b92915050565b60006020828403121561137957611378611300565b5b60006113878482850161134e565b91505092915050565b60008115159050919050565b6113a581611390565b82525050565b60006020820190506113c0600083018461139c565b92915050565b600060ff82169050919050565b6113dc816113c6565b81146113e757600080fd5b50565b6000813590506113f9816113d3565b92915050565b6000806040838503121561141657611415611300565b5b60006114248582860161134e565b9250506020611435858286016113ea565b9150509250929050565b61144881611325565b82525050565b6000602082019050611463600083018461143f565b92915050565b611472816113c6565b82525050565b600060208201905061148d6000830184611469565b92915050565b600082825260208201905092915050565b7f416464726573732063616e277420626520300000000000000000000000000000600082015250565b60006114da601283611493565b91506114e5826114a4565b602082019050919050565b60006020820190508181036000830152611509816114cd565b9050919050565b7f416464726573732063616e2774206265206f776e657200000000000000000000600082015250565b6000611546601683611493565b915061155182611510565b602082019050919050565b6000602082019050818103600083015261157581611539565b9050919050565b7f4164647265737320646f6573206e6f7420657869737400000000000000000000600082015250565b60006115b2601683611493565b91506115bd8261157c565b602082019050919050565b600060208201905081810360008301526115e1816115a5565b9050919050565b6000819050919050565b7f4e487b7100000000000000000000000000000000000000000000000000000000600052601160045260246000fd5b600061162c826115e8565b9150611637836115e8565b925082820390508181111561164f5761164e6115f2565b5b92915050565b7f4e487b7100000000000000000000000000000000000000000000000000000000600052603260045260246000fd5b7f4e487b7100000000000000000000000000000000000000000000000000000000600052603160045260246000fd5b7f4164647265737320616c72656164792061637469766174656400000000000000600082015250565b60006116e9601983611493565b91506116f4826116b3565b602082019050919050565b60006020820190508181036000830152611718816116dc565b9050919050565b6000604082019050611734600083018561143f565b611741602083018461139c565b9392505050565b7f4164647265737320616c72656164792064656163746976617465640000000000600082015250565b600061177e601b83611493565b915061178982611748565b602082019050919050565b600060208201905081810360008301526117ad81611771565b9050919050565b7f4164647265737320616c72656164792065786973746564000000000000000000600082015250565b60006117ea601783611493565b91506117f5826117b4565b602082019050919050565b60006020820190508181036000830152611819816117dd565b9050919050565b6000604082019050611835600083018561143f565b6118426020830184611469565b9392505050565b7f41646d696e20747970652063616e2774206265207468652073616d6500000000600082015250565b600061187f601c83611493565b915061188a82611849565b602082019050919050565b600060208201905081810360008301526118ae81611872565b9050919050565b7f4164647265737320646f65736e27742065786973740000000000000000000000600082015250565b60006118eb601583611493565b91506118f6826118b5565b602082019050919050565b6000602082019050818103600083015261191a816118de565b9050919050565b7f4f776e61626c653a206e6577206f776e657220697320746865207a65726f206160008201527f6464726573730000000000000000000000000000000000000000000000000000602082015250565b600061197d602683611493565b915061198882611921565b604082019050919050565b600060208201905081810360008301526119ac81611970565b9050919050565b7f4f776e61626c653a2063616c6c6572206973206e6f7420746865206f776e6572600082015250565b60006119e9602083611493565b91506119f4826119b3565b602082019050919050565b60006020820190508181036000830152611a18816119dc565b905091905056fea264697066735822122035948583ed4b32d3e2e9fddfa842e3cf5039d88efd56d4b3b1148709c65a30b864736f6c63430008110033",
  "immutableReferences": {},
  "source": "// SPDX-License-Identifier: MIT\npragma solidity >=0.4.22 <0.9.0;\n\nimport \"@openzeppelin/contracts/access/Ownable.sol\";\n\ncontract Admin is Ownable {\n  // function initialize() public initializer {\n  //   __Ownable_init();\n  // }\n\n  struct AdminInfo {\n    uint256 index; // one base index\n    uint8 adminType;\n    bool status;\n  }\n\n  address[] private admins;\n  mapping(address => AdminInfo) addrToAdmin;\n\n  event AdminAdded(address _wallet, uint8 _adminType);\n  event AdminUpdated(address _wallet, uint8 _adminType);\n  event AdminStatusChanged(address _wallet, bool _status);\n  event AdminRemoved(address _wallet);\n\n  modifier validAddress(address _wallet) {\n    require(_wallet != address(0), \"Address can't be 0\");\n    _;\n  }\n\n  modifier notOwner(address _wallet) {\n    require(_wallet != owner(), \"Address can't be owner\");\n    _;\n  }\n\n  function isExisted(address _wallet) public view returns (bool) {\n    return addrToAdmin[_wallet].index > 0;\n  }\n\n  function addAdmin(address _wallet, uint8 _adminType) external onlyOwner validAddress(_wallet) notOwner(_wallet) {\n    require(!isExisted(_wallet), \"Address already existed\");\n    admins.push(_wallet);\n    addrToAdmin[_wallet].index = admins.length;\n    addrToAdmin[_wallet].adminType = _adminType;\n    addrToAdmin[_wallet].status = true;\n    emit AdminAdded(_wallet, _adminType);\n  }\n\n  function deactiveAdmin(address _wallet) external onlyOwner validAddress(_wallet) notOwner(_wallet) {\n    require(addrToAdmin[_wallet].status, \"Address already deactivated\");\n    addrToAdmin[_wallet].status = false;\n    emit AdminStatusChanged(_wallet, false);\n  }\n\n  function activateAdmin(address _wallet) external onlyOwner validAddress(_wallet) notOwner(_wallet) {\n    require(!addrToAdmin[_wallet].status, \"Address already activated\");\n    addrToAdmin[_wallet].status = true;\n    emit AdminStatusChanged(_wallet, true);\n  }\n\n  function getAdminType(address _wallet) external validAddress(_wallet) view returns (uint8) {\n    require(isExisted(_wallet), \"Address doesn't exist\");\n    return addrToAdmin[_wallet].adminType;\n  }\n\n  function updateAdminType(address _wallet, uint8 _adminType) external validAddress(_wallet) notOwner(_wallet) {\n    require(_adminType != addrToAdmin[_wallet].adminType, \"Admin type can't be the same\");\n    addrToAdmin[_wallet].adminType = _adminType;\n    emit AdminUpdated(_wallet, _adminType);\n  }\n\n  function removeAdmin(address _wallet) external validAddress(_wallet) notOwner(_wallet) {\n    require(isExisted(_wallet), \"Address does not exist\");\n    // Remove address from array\n    // Index is 1 base, and array is 0 base\n    // Move the last array to the current array, then pop the last array\n    admins[addrToAdmin[_wallet].index - 1] = admins[admins.length - 1];\n    admins.pop();\n\n    // Change mapping value\n    addrToAdmin[_wallet].index = 0;\n    addrToAdmin[_wallet].adminType = 0;\n    addrToAdmin[_wallet].status = false;\n\n    emit AdminRemoved(_wallet);\n  }\n\n  function isAdmin(address _wallet) public view validAddress(_wallet) returns (bool) {\n    return addrToAdmin[_wallet].index > 0;\n  }\n}\n",
  "sourcePath": "/Users/chetra_seng/voting-dapp/contracts/Admin.sol",
  "compiler": {
    "name": "solc",
    "version": "0.8.17+commit.8df45f5f.Emscripten.clang"
  },
  "schemaVersion": "3.4.8",
  "updatedAt": "2022-11-11T18:23:39.554Z",
  "networkType": "ethereum",
  "devdoc": {
    "kind": "dev",
    "methods": {
      "owner()": {
        "details": "Returns the address of the current owner."
      },
      "renounceOwnership()": {
        "details": "Leaves the contract without owner. It will not be possible to call `onlyOwner` functions anymore. Can only be called by the current owner. NOTE: Renouncing ownership will leave the contract without an owner, thereby removing any functionality that is only available to the owner."
      },
      "transferOwnership(address)": {
        "details": "Transfers ownership of the contract to a new account (`newOwner`). Can only be called by the current owner."
      }
    },
    "version": 1
  },
  "userdoc": {
    "kind": "user",
    "methods": {},
    "version": 1
  }
}