{
  "contractName": "Vote",
  "abi": [
    {
      "anonymous": false,
      "inputs": [
        {
          "indexed": false,
          "internalType": "address",
          "name": "_address",
          "type": "address"
        }
      ],
      "name": "AdminUpdated",
      "type": "event"
    },
    {
      "anonymous": false,
      "inputs": [
        {
          "indexed": false,
          "internalType": "bytes32",
          "name": "topicName",
          "type": "bytes32"
        },
        {
          "indexed": false,
          "internalType": "uint256",
          "name": "index",
          "type": "uint256"
        },
        {
          "indexed": false,
          "internalType": "bytes32",
          "name": "name",
          "type": "bytes32"
        }
      ],
      "name": "OptionAdded",
      "type": "event"
    },
    {
      "anonymous": false,
      "inputs": [
        {
          "indexed": true,
          "internalType": "address",
          "name": "previousOwner",
          "type": "address"
        },
        {
          "indexed": true,
          "internalType": "address",
          "name": "newOwner",
          "type": "address"
        }
      ],
      "name": "OwnershipTransferred",
      "type": "event"
    },
    {
      "anonymous": false,
      "inputs": [
        {
          "indexed": false,
          "internalType": "uint64",
          "name": "blockCount",
          "type": "uint64"
        }
      ],
      "name": "SessionBlockUpdated",
      "type": "event"
    },
    {
      "anonymous": false,
      "inputs": [
        {
          "indexed": false,
          "internalType": "uint256",
          "name": "startBlock",
          "type": "uint256"
        },
        {
          "indexed": false,
          "internalType": "uint256",
          "name": "endBlock",
          "type": "uint256"
        }
      ],
      "name": "SessionStarted",
      "type": "event"
    },
    {
      "anonymous": false,
      "inputs": [
        {
          "indexed": false,
          "internalType": "uint256",
          "name": "topicId",
          "type": "uint256"
        },
        {
          "indexed": false,
          "internalType": "bytes32",
          "name": "name",
          "type": "bytes32"
        }
      ],
      "name": "TopicAdded",
      "type": "event"
    },
    {
      "anonymous": false,
      "inputs": [
        {
          "indexed": false,
          "internalType": "bytes32",
          "name": "topicName",
          "type": "bytes32"
        },
        {
          "indexed": false,
          "internalType": "address",
          "name": "voter",
          "type": "address"
        }
      ],
      "name": "Voted",
      "type": "event"
    },
    {
      "inputs": [],
      "name": "getCurrentSesson",
      "outputs": [
        {
          "internalType": "uint8",
          "name": "",
          "type": "uint8"
        },
        {
          "internalType": "string",
          "name": "",
          "type": "string"
        },
        {
          "internalType": "uint256",
          "name": "",
          "type": "uint256"
        },
        {
          "internalType": "uint256",
          "name": "",
          "type": "uint256"
        }
      ],
      "stateMutability": "view",
      "type": "function",
      "constant": true
    },
    {
      "inputs": [],
      "name": "owner",
      "outputs": [
        {
          "internalType": "address",
          "name": "",
          "type": "address"
        }
      ],
      "stateMutability": "view",
      "type": "function",
      "constant": true
    },
    {
      "inputs": [],
      "name": "renounceOwnership",
      "outputs": [],
      "stateMutability": "nonpayable",
      "type": "function"
    },
    {
      "inputs": [
        {
          "internalType": "address",
          "name": "newOwner",
          "type": "address"
        }
      ],
      "name": "transferOwnership",
      "outputs": [],
      "stateMutability": "nonpayable",
      "type": "function"
    },
    {
      "inputs": [
        {
          "internalType": "uint64",
          "name": "_blockCount",
          "type": "uint64"
        }
      ],
      "name": "updateSessionBlock",
      "outputs": [],
      "stateMutability": "nonpayable",
      "type": "function"
    },
    {
      "inputs": [
        {
          "internalType": "bytes32",
          "name": "_name",
          "type": "bytes32"
        }
      ],
      "name": "isTopicExists",
      "outputs": [
        {
          "internalType": "bool",
          "name": "",
          "type": "bool"
        }
      ],
      "stateMutability": "view",
      "type": "function",
      "constant": true
    },
    {
      "inputs": [
        {
          "internalType": "bytes32",
          "name": "_topicName",
          "type": "bytes32"
        },
        {
          "internalType": "bytes32",
          "name": "_optionName",
          "type": "bytes32"
        }
      ],
      "name": "isOptionExists",
      "outputs": [
        {
          "internalType": "bool",
          "name": "",
          "type": "bool"
        }
      ],
      "stateMutability": "view",
      "type": "function",
      "constant": true
    },
    {
      "inputs": [
        {
          "internalType": "bytes32",
          "name": "_name",
          "type": "bytes32"
        }
      ],
      "name": "addTopic",
      "outputs": [],
      "stateMutability": "nonpayable",
      "type": "function"
    },
    {
      "inputs": [
        {
          "internalType": "bytes32",
          "name": "_topicName",
          "type": "bytes32"
        },
        {
          "internalType": "bytes32",
          "name": "_optionName",
          "type": "bytes32"
        }
      ],
      "name": "addOption",
      "outputs": [],
      "stateMutability": "nonpayable",
      "type": "function"
    },
    {
      "inputs": [
        {
          "internalType": "bytes32",
          "name": "_topicName",
          "type": "bytes32"
        },
        {
          "internalType": "bytes32",
          "name": "_optionName",
          "type": "bytes32"
        }
      ],
      "name": "addVote",
      "outputs": [],
      "stateMutability": "nonpayable",
      "type": "function"
    },
    {
      "inputs": [],
      "name": "getTopics",
      "outputs": [
        {
          "internalType": "bytes32[]",
          "name": "",
          "type": "bytes32[]"
        }
      ],
      "stateMutability": "view",
      "type": "function",
      "constant": true
    },
    {
      "inputs": [],
      "name": "getLatestTopic",
      "outputs": [
        {
          "internalType": "bytes32",
          "name": "",
          "type": "bytes32"
        }
      ],
      "stateMutability": "view",
      "type": "function",
      "constant": true
    },
    {
      "inputs": [
        {
          "internalType": "bytes32",
          "name": "_name",
          "type": "bytes32"
        }
      ],
      "name": "getVoteOptions",
      "outputs": [
        {
          "internalType": "bytes32[]",
          "name": "",
          "type": "bytes32[]"
        }
      ],
      "stateMutability": "view",
      "type": "function",
      "constant": true
    },
    {
      "inputs": [
        {
          "internalType": "bytes32",
          "name": "_name",
          "type": "bytes32"
        }
      ],
      "name": "getVoters",
      "outputs": [
        {
          "internalType": "address[]",
          "name": "",
          "type": "address[]"
        }
      ],
      "stateMutability": "view",
      "type": "function",
      "constant": true
    },
    {
      "inputs": [
        {
          "internalType": "bytes32",
          "name": "_topicName",
          "type": "bytes32"
        },
        {
          "internalType": "bytes32",
          "name": "_optionName",
          "type": "bytes32"
        }
      ],
      "name": "getVoteCount",
      "outputs": [
        {
          "internalType": "uint256",
          "name": "",
          "type": "uint256"
        }
      ],
      "stateMutability": "view",
      "type": "function",
      "constant": true
    },
    {
      "inputs": [
        {
          "internalType": "address",
          "name": "_address",
          "type": "address"
        }
      ],
      "name": "updateAdminContract",
      "outputs": [],
      "stateMutability": "nonpayable",
      "type": "function"
    }
  ],
  "bytecode": "0x60806040523480156200001157600080fd5b5062000032620000266200017e60201b60201c565b6200018660201b60201c565b600a600060146101000a81548167ffffffffffffffff021916908367ffffffffffffffff1602179055506040518060400160405280600881526020017f496e616374697665000000000000000000000000000000000000000000000000815250600160008060ff1681526020019081526020016000206000019081620000b99190620004c4565b506040518060400160405280600c81526020017f526567697374726174696f6e000000000000000000000000000000000000000081525060016000600160ff1681526020019081526020016000206000019081620001189190620004c4565b506040518060400160405280600681526020017f566f74696e67000000000000000000000000000000000000000000000000000081525060016000600260ff1681526020019081526020016000206000019081620001779190620004c4565b50620005ab565b600033905090565b60008060009054906101000a900473ffffffffffffffffffffffffffffffffffffffff169050816000806101000a81548173ffffffffffffffffffffffffffffffffffffffff021916908373ffffffffffffffffffffffffffffffffffffffff1602179055508173ffffffffffffffffffffffffffffffffffffffff168173ffffffffffffffffffffffffffffffffffffffff167f8be0079c531659141344cd1fd0a4f28419497f9722a3daafe3b4186f6b6457e060405160405180910390a35050565b600081519050919050565b7f4e487b7100000000000000000000000000000000000000000000000000000000600052604160045260246000fd5b7f4e487b7100000000000000000000000000000000000000000000000000000000600052602260045260246000fd5b60006002820490506001821680620002cc57607f821691505b602082108103620002e257620002e162000284565b5b50919050565b60008190508160005260206000209050919050565b60006020601f8301049050919050565b600082821b905092915050565b6000600883026200034c7fffffffffffffffffffffffffffffffffffffffffffffffffffffffffffffffff826200030d565b6200035886836200030d565b95508019841693508086168417925050509392505050565b6000819050919050565b6000819050919050565b6000620003a56200039f620003998462000370565b6200037a565b62000370565b9050919050565b6000819050919050565b620003c18362000384565b620003d9620003d082620003ac565b8484546200031a565b825550505050565b600090565b620003f0620003e1565b620003fd818484620003b6565b505050565b5b81811015620004255762000419600082620003e6565b60018101905062000403565b5050565b601f82111562000474576200043e81620002e8565b6200044984620002fd565b8101602085101562000459578190505b620004716200046885620002fd565b83018262000402565b50505b505050565b600082821c905092915050565b6000620004996000198460080262000479565b1980831691505092915050565b6000620004b4838362000486565b9150826002028217905092915050565b620004cf826200024a565b67ffffffffffffffff811115620004eb57620004ea62000255565b5b620004f78254620002b3565b6200050482828562000429565b600060209050601f8311600181146200053c576000841562000527578287015190505b620005338582620004a6565b865550620005a3565b601f1984166200054c86620002e8565b60005b8281101562000576578489015182556001820191506020850194506020810190506200054f565b8683101562000596578489015162000592601f89168262000486565b8355505b6001600288020188555050505b505050505050565b6123f980620005bb6000396000f3fe608060405234801561001057600080fd5b50600436106101005760003560e01c80638da5cb5b11610097578063e2b2a3ee11610066578063e2b2a3ee146102a9578063f2fde38b146102c7578063f6180fc1146102e3578063fee011771461030457610100565b80638da5cb5b146101fb578063c83d46d814610219578063ca413fbe14610249578063df5346801461027957610100565b80636d721171116100d35780636d72117114610175578063715018a6146101a557806372696cb4146101af5780638b4a781c146101cb57610100565b806335921b0814610105578063388d2c2414610121578063547199111461013d57806359905dbf14610159575b600080fd5b61011f600480360381019061011a9190611718565b610322565b005b61013b600480360381019061013691906117b6565b6106d8565b005b61015760048036038101906101529190611823565b61075b565b005b610173600480360381019061016e9190611718565b610813565b005b61018f600480360381019061018a9190611718565b610ad3565b60405161019c9190611869565b60405180910390f35b6101ad610c2d565b005b6101c960048036038101906101c49190611884565b610c41565b005b6101e560048036038101906101e09190611884565b610d7e565b6040516101f2919061196f565b60405180910390f35b610203610eb3565b60405161021091906119a0565b60405180910390f35b610233600480360381019061022e9190611718565b610edc565b60405161024091906119d6565b60405180910390f35b610263600480360381019061025e9190611884565b610f13565b60405161027091906119d6565b60405180910390f35b610293600480360381019061028e9190611884565b610f35565b6040516102a09190611aaf565b60405180910390f35b6102b1611034565b6040516102be9190611ae0565b60405180910390f35b6102e160048036038101906102dc91906117b6565b61106b565b005b6102eb6110ee565b6040516102fb9493929190611ba7565b60405180910390f35b61030c611395565b6040516103199190611aaf565b60405180910390f35b816000801b8103610368576040517f08c379a000000000000000000000000000000000000000000000000000000000815260040161035f90611c3f565b60405180910390fd5b8261037281610f13565b6103b1576040517f08c379a00000000000000000000000000000000000000000000000000000000081526004016103a890611cab565b60405180910390fd5b826000801b81036103f7576040517f08c379a00000000000000000000000000000000000000000000000000000000081526004016103ee90611c3f565b60405180910390fd5b84846104038282610edc565b610442576040517f08c379a000000000000000000000000000000000000000000000000000000000815260040161043990611d17565b60405180910390fd5b600460009054906101000a900473ffffffffffffffffffffffffffffffffffffffff1673ffffffffffffffffffffffffffffffffffffffff1663aaad0c84336040518263ffffffff1660e01b815260040161049d91906119a0565b602060405180830381865afa1580156104ba573d6000803e3d6000fd5b505050506040513d601f19601f820116820180604052508101906104de9190611d63565b15801561051e57503373ffffffffffffffffffffffffffffffffffffffff16610505610eb3565b73ffffffffffffffffffffffffffffffffffffffff1614155b61055d576040517f08c379a000000000000000000000000000000000000000000000000000000000815260040161055490611ddc565b60405180910390fd5b60016000600160ff16815260200190815260200160002060010154431180156105a0575060016000600260ff168152602001908152602001600020600101544311155b6105df576040517f08c379a00000000000000000000000000000000000000000000000000000000081526004016105d690611e48565b60405180910390fd5b600360008881526020019081526020016000206003016000878152602001908152602001600020600101600081548092919061061a90611e97565b919050555060036000888152602001908152602001600020600101339080600181540180825580915050600190039060005260206000200160009091909190916101000a81548173ffffffffffffffffffffffffffffffffffffffff021916908373ffffffffffffffffffffffffffffffffffffffff1602179055507f0b2f654b7e608ce51a82ce8157e79c350ed670605e8985266ad89fc85060e74987336040516106c7929190611edf565b60405180910390a150505050505050565b6106e06113ed565b80600460006101000a81548173ffffffffffffffffffffffffffffffffffffffff021916908373ffffffffffffffffffffffffffffffffffffffff1602179055507f54e4612788f90384e6843298d7854436f3a585b2c3831ab66abf1de63bfa6c2d8160405161075091906119a0565b60405180910390a150565b6107636113ed565b60008167ffffffffffffffff16116107b0576040517f08c379a00000000000000000000000000000000000000000000000000000000081526004016107a790611f7a565b60405180910390fd5b80600060146101000a81548167ffffffffffffffff021916908367ffffffffffffffff1602179055507fd7589a23ba7e3dbb2ed1efb64fe0569251d893256d832ecba9e47ad369fe3772816040516108089190611fa9565b60405180910390a150565b816000801b8103610859576040517f08c379a000000000000000000000000000000000000000000000000000000000815260040161085090611c3f565b60405180910390fd5b8261086381610f13565b6108a2576040517f08c379a000000000000000000000000000000000000000000000000000000000815260040161089990611cab565b60405180910390fd5b826000801b81036108e8576040517f08c379a00000000000000000000000000000000000000000000000000000000081526004016108df90611c3f565b60405180910390fd5b600460009054906101000a900473ffffffffffffffffffffffffffffffffffffffff1673ffffffffffffffffffffffffffffffffffffffff1663aaad0c84336040518263ffffffff1660e01b815260040161094391906119a0565b602060405180830381865afa158015610960573d6000803e3d6000fd5b505050506040513d601f19601f820116820180604052508101906109849190611d63565b6109c3576040517f08c379a00000000000000000000000000000000000000000000000000000000081526004016109ba90612010565b60405180910390fd5b60016000600160ff16815260200190815260200160002060010154431115610a20576040517f08c379a0000000000000000000000000000000000000000000000000000000008152600401610a179061207c565b60405180910390fd5b60006003600087815260200190815260200160002090508060020185908060018154018082558091505060019003906000526020600020016000909190919091505560008160030160008781526020019081526020016000209050816002018054905081600001819055507f8c59a0a666a2138dd67f6d84df9a132b35603c2dc0a874c3a60d6e9a40c6ebb687826000015488604051610ac29392919061209c565b60405180910390a150505050505050565b6000826000801b8103610b1b576040517f08c379a0000000000000000000000000000000000000000000000000000000008152600401610b1290611c3f565b60405180910390fd5b83610b2581610f13565b610b64576040517f08c379a0000000000000000000000000000000000000000000000000000000008152600401610b5b90611cab565b60405180910390fd5b836000801b8103610baa576040517f08c379a0000000000000000000000000000000000000000000000000000000008152600401610ba190611c3f565b60405180910390fd5b8585610bb68282610edc565b610bf5576040517f08c379a0000000000000000000000000000000000000000000000000000000008152600401610bec90611d17565b60405180910390fd5b600360008981526020019081526020016000206003016000888152602001908152602001600020600101549550505050505092915050565b610c356113ed565b610c3f600061146b565b565b806000801b8103610c87576040517f08c379a0000000000000000000000000000000000000000000000000000000008152600401610c7e90611c3f565b60405180910390fd5b610c8f6113ed565b60016000600260ff168152602001908152602001600020600101544311610ceb576040517f08c379a0000000000000000000000000000000000000000000000000000000008152600401610ce29061211f565b60405180910390fd5b60028290806001815401808255809150506001900390600052602060002001600090919091909150556002805490506003600084815260200190815260200160002060000181905550610d3c61152f565b7fab02240a86babdc0c356c3168127f46748185f0293f1e817f4250695a263515860028054905083604051610d7292919061213f565b60405180910390a15050565b6060816000801b8103610dc6576040517f08c379a0000000000000000000000000000000000000000000000000000000008152600401610dbd90611c3f565b60405180910390fd5b82610dd081610f13565b610e0f576040517f08c379a0000000000000000000000000000000000000000000000000000000008152600401610e0690611cab565b60405180910390fd5b60036000858152602001908152602001600020600101805480602002602001604051908101604052809291908181526020018280548015610ea557602002820191906000526020600020905b8160009054906101000a900473ffffffffffffffffffffffffffffffffffffffff1673ffffffffffffffffffffffffffffffffffffffff1681526020019060010190808311610e5b575b505050505092505050919050565b60008060009054906101000a900473ffffffffffffffffffffffffffffffffffffffff16905090565b6000806003600085815260200190815260200160002060030160008481526020019081526020016000206000015411905092915050565b6000806003600084815260200190815260200160002060000154119050919050565b6060816000801b8103610f7d576040517f08c379a0000000000000000000000000000000000000000000000000000000008152600401610f7490611c3f565b60405180910390fd5b82610f8781610f13565b610fc6576040517f08c379a0000000000000000000000000000000000000000000000000000000008152600401610fbd90611cab565b60405180910390fd5b6003600085815260200190815260200160002060020180548060200260200160405190810160405280929190818152602001828054801561102657602002820191906000526020600020905b815481526020019060010190808311611012575b505050505092505050919050565b60006002600160028054905061104a9190612168565b8154811061105b5761105a61219c565b5b9060005260206000200154905090565b6110736113ed565b600073ffffffffffffffffffffffffffffffffffffffff168173ffffffffffffffffffffffffffffffffffffffff16036110e2576040517f08c379a00000000000000000000000000000000000000000000000000000000081526004016110d99061223d565b60405180910390fd5b6110eb8161146b565b50565b6000606060008060004390506000600160008060ff168152602001908152602001600020600101549050600060016000600160ff168152602001908152602001600020600101549050600060016000600260ff168152602001908152602001600020600101549050818411611217576001806000600160ff16815260200190815260200160002060000185848280546111869061228c565b80601f01602080910402602001604051908101604052809291908181526020018280546111b29061228c565b80156111ff5780601f106111d4576101008083540402835291602001916111ff565b820191906000526020600020905b8154815290600101906020018083116111e257829003601f168201915b5050505050925097509750975097505050505061138f565b8084116112d957600260016000600260ff16815260200190815260200160002060000185838280546112489061228c565b80601f01602080910402602001604051908101604052809291908181526020018280546112749061228c565b80156112c15780601f10611296576101008083540402835291602001916112c1565b820191906000526020600020905b8154815290600101906020018083116112a457829003601f168201915b5050505050925097509750975097505050505061138f565b6000600160008060ff16815260200190815260200160002060000185858280546113029061228c565b80601f016020809104026020016040519081016040528092919081815260200182805461132e9061228c565b801561137b5780601f106113505761010080835404028352916020019161137b565b820191906000526020600020905b81548152906001019060200180831161135e57829003601f168201915b505050505092509750975097509750505050505b90919293565b606060028054806020026020016040519081016040528092919081815260200182805480156113e357602002820191906000526020600020905b8154815260200190600101908083116113cf575b5050505050905090565b6113f56116d5565b73ffffffffffffffffffffffffffffffffffffffff16611413610eb3565b73ffffffffffffffffffffffffffffffffffffffff1614611469576040517f08c379a000000000000000000000000000000000000000000000000000000000815260040161146090612309565b60405180910390fd5b565b60008060009054906101000a900473ffffffffffffffffffffffffffffffffffffffff169050816000806101000a81548173ffffffffffffffffffffffffffffffffffffffff021916908373ffffffffffffffffffffffffffffffffffffffff1602179055508173ffffffffffffffffffffffffffffffffffffffff168173ffffffffffffffffffffffffffffffffffffffff167f8be0079c531659141344cd1fd0a4f28419497f9722a3daafe3b4186f6b6457e060405160405180910390a35050565b60016000600260ff16815260200190815260200160002060010154431161158b576040517f08c379a00000000000000000000000000000000000000000000000000000000081526004016115829061211f565b60405180910390fd5b600060149054906101000a900467ffffffffffffffff1667ffffffffffffffff16436115b79190612329565b60016000600160ff16815260200190815260200160002060010181905550600060149054906101000a900467ffffffffffffffff1660026115f8919061235d565b67ffffffffffffffff164361160d9190612329565b60016000600260ff16815260200190815260200160002060010181905550600060149054906101000a900467ffffffffffffffff16600361164e919061235d565b67ffffffffffffffff16436116639190612329565b600160008060ff168152602001908152602001600020600101819055507fce6cbe3431d9ec9ac1a82a77a80bb9120b0250307afb3ed08873ea84c52b70c04360016000600360ff168152602001908152602001600020600101546040516116cb92919061239a565b60405180910390a1565b600033905090565b600080fd5b6000819050919050565b6116f5816116e2565b811461170057600080fd5b50565b600081359050611712816116ec565b92915050565b6000806040838503121561172f5761172e6116dd565b5b600061173d85828601611703565b925050602061174e85828601611703565b9150509250929050565b600073ffffffffffffffffffffffffffffffffffffffff82169050919050565b600061178382611758565b9050919050565b61179381611778565b811461179e57600080fd5b50565b6000813590506117b08161178a565b92915050565b6000602082840312156117cc576117cb6116dd565b5b60006117da848285016117a1565b91505092915050565b600067ffffffffffffffff82169050919050565b611800816117e3565b811461180b57600080fd5b50565b60008135905061181d816117f7565b92915050565b600060208284031215611839576118386116dd565b5b60006118478482850161180e565b91505092915050565b6000819050919050565b61186381611850565b82525050565b600060208201905061187e600083018461185a565b92915050565b60006020828403121561189a576118996116dd565b5b60006118a884828501611703565b91505092915050565b600081519050919050565b600082825260208201905092915050565b6000819050602082019050919050565b6118e681611778565b82525050565b60006118f883836118dd565b60208301905092915050565b6000602082019050919050565b600061191c826118b1565b61192681856118bc565b9350611931836118cd565b8060005b8381101561196257815161194988826118ec565b975061195483611904565b925050600181019050611935565b5085935050505092915050565b600060208201905081810360008301526119898184611911565b905092915050565b61199a81611778565b82525050565b60006020820190506119b56000830184611991565b92915050565b60008115159050919050565b6119d0816119bb565b82525050565b60006020820190506119eb60008301846119c7565b92915050565b600081519050919050565b600082825260208201905092915050565b6000819050602082019050919050565b611a26816116e2565b82525050565b6000611a388383611a1d565b60208301905092915050565b6000602082019050919050565b6000611a5c826119f1565b611a6681856119fc565b9350611a7183611a0d565b8060005b83811015611aa2578151611a898882611a2c565b9750611a9483611a44565b925050600181019050611a75565b5085935050505092915050565b60006020820190508181036000830152611ac98184611a51565b905092915050565b611ada816116e2565b82525050565b6000602082019050611af56000830184611ad1565b92915050565b600060ff82169050919050565b611b1181611afb565b82525050565b600081519050919050565b600082825260208201905092915050565b60005b83811015611b51578082015181840152602081019050611b36565b60008484015250505050565b6000601f19601f8301169050919050565b6000611b7982611b17565b611b838185611b22565b9350611b93818560208601611b33565b611b9c81611b5d565b840191505092915050565b6000608082019050611bbc6000830187611b08565b8181036020830152611bce8186611b6e565b9050611bdd604083018561185a565b611bea606083018461185a565b95945050505050565b7f4e616d652063616e277420626520656d70747900000000000000000000000000600082015250565b6000611c29601383611b22565b9150611c3482611bf3565b602082019050919050565b60006020820190508181036000830152611c5881611c1c565b9050919050565b7f546f706963206e6f7420666f756e640000000000000000000000000000000000600082015250565b6000611c95600f83611b22565b9150611ca082611c5f565b602082019050919050565b60006020820190508181036000830152611cc481611c88565b9050919050565b7f4f7074696f6e206e6f7420666f756e6400000000000000000000000000000000600082015250565b6000611d01601083611b22565b9150611d0c82611ccb565b602082019050919050565b60006020820190508181036000830152611d3081611cf4565b9050919050565b611d40816119bb565b8114611d4b57600080fd5b50565b600081519050611d5d81611d37565b92915050565b600060208284031215611d7957611d786116dd565b5b6000611d8784828501611d4e565b91505092915050565b7f4f6e6c79207573657220697320616c6c6f776564000000000000000000000000600082015250565b6000611dc6601483611b22565b9150611dd182611d90565b602082019050919050565b60006020820190508181036000830152611df581611db9565b9050919050565b7f4f6e6c7920766f74696e6720697320616c6c6f77656400000000000000000000600082015250565b6000611e32601683611b22565b9150611e3d82611dfc565b602082019050919050565b60006020820190508181036000830152611e6181611e25565b9050919050565b7f4e487b7100000000000000000000000000000000000000000000000000000000600052601160045260246000fd5b6000611ea282611850565b91507fffffffffffffffffffffffffffffffffffffffffffffffffffffffffffffffff8203611ed457611ed3611e68565b5b600182019050919050565b6000604082019050611ef46000830185611ad1565b611f016020830184611991565b9392505050565b7f4e657720626c6f636b20636f756e74206d75737420626520677265617465722060008201527f7468616e20300000000000000000000000000000000000000000000000000000602082015250565b6000611f64602683611b22565b9150611f6f82611f08565b604082019050919050565b60006020820190508181036000830152611f9381611f57565b9050919050565b611fa3816117e3565b82525050565b6000602082019050611fbe6000830184611f9a565b92915050565b7f4f6e6c792061646d696e20697320616c6c6f7765640000000000000000000000600082015250565b6000611ffa601583611b22565b915061200582611fc4565b602082019050919050565b6000602082019050818103600083015261202981611fed565b9050919050565b7f4f6e6c7920726567697374726174696f6e20697320616c6c6f77656400000000600082015250565b6000612066601c83611b22565b915061207182612030565b602082019050919050565b6000602082019050818103600083015261209581612059565b9050919050565b60006060820190506120b16000830186611ad1565b6120be602083018561185a565b6120cb6040830184611ad1565b949350505050565b7f566f74652073657373696f6e206d75737420626520696e616374697665000000600082015250565b6000612109601d83611b22565b9150612114826120d3565b602082019050919050565b60006020820190508181036000830152612138816120fc565b9050919050565b6000604082019050612154600083018561185a565b6121616020830184611ad1565b9392505050565b600061217382611850565b915061217e83611850565b925082820390508181111561219657612195611e68565b5b92915050565b7f4e487b7100000000000000000000000000000000000000000000000000000000600052603260045260246000fd5b7f4f776e61626c653a206e6577206f776e657220697320746865207a65726f206160008201527f6464726573730000000000000000000000000000000000000000000000000000602082015250565b6000612227602683611b22565b9150612232826121cb565b604082019050919050565b600060208201905081810360008301526122568161221a565b9050919050565b7f4e487b7100000000000000000000000000000000000000000000000000000000600052602260045260246000fd5b600060028204905060018216806122a457607f821691505b6020821081036122b7576122b661225d565b5b50919050565b7f4f776e61626c653a2063616c6c6572206973206e6f7420746865206f776e6572600082015250565b60006122f3602083611b22565b91506122fe826122bd565b602082019050919050565b60006020820190508181036000830152612322816122e6565b9050919050565b600061233482611850565b915061233f83611850565b925082820190508082111561235757612356611e68565b5b92915050565b6000612368826117e3565b9150612373836117e3565b9250828202612381816117e3565b915080821461239357612392611e68565b5b5092915050565b60006040820190506123af600083018561185a565b6123bc602083018461185a565b939250505056fea26469706673582212206929f798c46a5c7de9fa42e2a80fcc24e26dfae974e59db94c7d151792afcfcd64736f6c63430008110033",
  "immutableReferences": {},
  "source": "// SPDX-License-Identifier: MIT\npragma solidity >=0.4.22 <0.9.0;\n\nimport \"./Admin.sol\";\nimport \"./Session.sol\";\n\ncontract Vote is Session {\n  struct Option{\n    uint256 index; // 1 based\n    uint votes;\n  }\n\n  struct Topic {\n    uint256 index; // 1 based\n    address[] voters;\n    bytes32[] options;\n    mapping(bytes32 => Option) nameToOption;\n  }\n\n  bytes32[] private topics;\n  mapping(bytes32 => Topic) private nameToTopic;\n  Admin adminContract;\n\n  event Voted(bytes32 topicName, address voter);\n  event TopicAdded(uint256 topicId, bytes32 name);\n  event OptionAdded(bytes32 topicName, uint256 index, bytes32 name);\n  event AdminUpdated(address _address);\n\n  modifier validName(bytes32 _name) {\n    require(_name != 0, \"Name can't be empty\");\n    _;\n  }\n\n  modifier topicExist(bytes32 _name) {\n    require(isTopicExists(_name), \"Topic not found\");\n    _;\n  }\n\n  modifier optionExist(bytes32 _topicName, bytes32 _optionName) {\n    require(isOptionExists(_topicName, _optionName), \"Option not found\");\n    _;\n  }\n\n  modifier onlyAdmin() {\n    require(adminContract.isExisted(msg.sender), \"Only admin is allowed\");\n    _;\n  }\n\n  modifier onlyUser() {\n    require(\n      !adminContract.isExisted(msg.sender) && \n        owner() != msg.sender, \n      \"Only user is allowed\");\n    _;\n  }\n\n  function isTopicExists(bytes32 _name) public view returns (bool) {\n    return nameToTopic[_name].index > 0;\n  }\n\n  function isOptionExists(bytes32 _topicName, bytes32 _optionName) \n    public view returns (bool) \n  {\n    return nameToTopic[_topicName].nameToOption[_optionName].index > 0;\n  }\n\n  function addTopic(bytes32 _name) external validName(_name) onlyOwner onlyInActive{\n    topics.push(_name);\n    nameToTopic[_name].index = topics.length;\n    startSession();\n    emit TopicAdded(topics.length, _name);\n  }\n\n  function addOption(bytes32 _topicName, bytes32 _optionName) external \n    validName(_topicName) topicExist(_topicName) validName(_optionName)\n    onlyAdmin onlyRegister \n  {\n    // push new option to topic\n    Topic storage _topic = nameToTopic[_topicName];\n    _topic.options.push(_optionName);\n\n    // Initilize option index\n    Option storage _option = _topic.nameToOption[_optionName];\n    _option.index = _topic.options.length;\n\n    emit OptionAdded(_topicName, _option.index, _optionName);\n  }\n\n  function addVote(bytes32 _topicName, bytes32 _optionName) external \n    validName(_topicName) topicExist(_topicName) \n    validName(_optionName) optionExist(_topicName, _optionName) \n    onlyUser onlyVote\n  {\n    // Increment vote count in option and add address to topic\n    nameToTopic[_topicName].nameToOption[_optionName].votes++;\n    nameToTopic[_topicName].voters.push(msg.sender);\n    emit Voted(_topicName, msg.sender);\n  }\n\n  function getTopics() external view returns (bytes32[] memory) {\n    return topics;\n  }\n\n  function getLatestTopic() external view returns (bytes32) {\n    return topics[topics.length - 1];\n  }\n\n  function getVoteOptions(bytes32 _name) external \n    validName(_name) topicExist(_name) view returns (bytes32[] memory) \n  {\n    return nameToTopic[_name].options;\n  }\n\n  function getVoters(bytes32 _name) external validName(_name) topicExist(_name) \n    view returns (address[] memory) \n  {\n    return nameToTopic[_name].voters;\n  }\n\n  function getVoteCount(bytes32 _topicName, bytes32 _optionName) external\n   validName(_topicName) topicExist(_topicName) validName(_optionName) \n   optionExist(_topicName, _optionName) view returns (uint256) \n  {\n    return nameToTopic[_topicName].nameToOption[_optionName].votes;\n  }\n\n  function updateAdminContract(address _address) external onlyOwner {\n    adminContract = Admin(_address);\n    emit AdminUpdated(_address);\n  }\n}\n",
  "sourcePath": "/Users/chetra_seng/voting-dapp/contracts/Vote.sol",
  "compiler": {
    "name": "solc",
    "version": "0.8.17+commit.8df45f5f.Emscripten.clang"
  },
  "schemaVersion": "3.4.8",
  "updatedAt": "2022-11-13T21:21:50.325Z",
  "networkType": "ethereum",
  "devdoc": {
    "kind": "dev",
    "methods": {
      "owner()": {
        "details": "Returns the address of the current owner."
      },
      "renounceOwnership()": {
        "details": "Leaves the contract without owner. It will not be possible to call `onlyOwner` functions anymore. Can only be called by the current owner. NOTE: Renouncing ownership will leave the contract without an owner, thereby removing any functionality that is only available to the owner."
      },
      "transferOwnership(address)": {
        "details": "Transfers ownership of the contract to a new account (`newOwner`). Can only be called by the current owner."
      }
    },
    "version": 1
  },
  "userdoc": {
    "kind": "user",
    "methods": {},
    "version": 1
  }
}