{
    "contractName": "Vote",
    "abi": [
        {
            "anonymous": false,
            "inputs": [
                {
                    "indexed": false,
                    "internalType": "address",
                    "name": "_address",
                    "type": "address"
                }
            ],
            "name": "AdminUpdated",
            "type": "event"
        },
        {
            "anonymous": false,
            "inputs": [
                {
                    "indexed": false,
                    "internalType": "bytes32",
                    "name": "topicName",
                    "type": "bytes32"
                },
                {
                    "indexed": false,
                    "internalType": "uint256",
                    "name": "index",
                    "type": "uint256"
                },
                {
                    "indexed": false,
                    "internalType": "bytes32",
                    "name": "name",
                    "type": "bytes32"
                }
            ],
            "name": "OptionAdded",
            "type": "event"
        },
        {
            "anonymous": false,
            "inputs": [
                {
                    "indexed": true,
                    "internalType": "address",
                    "name": "previousOwner",
                    "type": "address"
                },
                {
                    "indexed": true,
                    "internalType": "address",
                    "name": "newOwner",
                    "type": "address"
                }
            ],
            "name": "OwnershipTransferred",
            "type": "event"
        },
        {
            "anonymous": false,
            "inputs": [
                {
                    "indexed": false,
                    "internalType": "uint64",
                    "name": "blockCount",
                    "type": "uint64"
                }
            ],
            "name": "SessionBlockUpdated",
            "type": "event"
        },
        {
            "anonymous": false,
            "inputs": [
                {
                    "indexed": false,
                    "internalType": "uint256",
                    "name": "startBlock",
                    "type": "uint256"
                },
                {
                    "indexed": false,
                    "internalType": "uint256",
                    "name": "endBlock",
                    "type": "uint256"
                }
            ],
            "name": "SessionStarted",
            "type": "event"
        },
        {
            "anonymous": false,
            "inputs": [
                {
                    "indexed": false,
                    "internalType": "uint256",
                    "name": "topicId",
                    "type": "uint256"
                },
                {
                    "indexed": false,
                    "internalType": "bytes32",
                    "name": "name",
                    "type": "bytes32"
                }
            ],
            "name": "TopicAdded",
            "type": "event"
        },
        {
            "anonymous": false,
            "inputs": [
                {
                    "indexed": false,
                    "internalType": "bytes32",
                    "name": "topicName",
                    "type": "bytes32"
                },
                {
                    "indexed": false,
                    "internalType": "address",
                    "name": "voter",
                    "type": "address"
                }
            ],
            "name": "Voted",
            "type": "event"
        },
        {
            "inputs": [],
            "name": "getCurrentSesson",
            "outputs": [
                {
                    "internalType": "uint8",
                    "name": "",
                    "type": "uint8"
                },
                {
                    "internalType": "string",
                    "name": "",
                    "type": "string"
                },
                {
                    "internalType": "uint256",
                    "name": "",
                    "type": "uint256"
                },
                {
                    "internalType": "uint256",
                    "name": "",
                    "type": "uint256"
                }
            ],
            "stateMutability": "view",
            "type": "function",
            "constant": true
        },
        {
            "inputs": [],
            "name": "owner",
            "outputs": [
                {
                    "internalType": "address",
                    "name": "",
                    "type": "address"
                }
            ],
            "stateMutability": "view",
            "type": "function",
            "constant": true
        },
        {
            "inputs": [],
            "name": "renounceOwnership",
            "outputs": [],
            "stateMutability": "nonpayable",
            "type": "function"
        },
        {
            "inputs": [],
            "name": "startSession",
            "outputs": [],
            "stateMutability": "nonpayable",
            "type": "function"
        },
        {
            "inputs": [
                {
                    "internalType": "address",
                    "name": "newOwner",
                    "type": "address"
                }
            ],
            "name": "transferOwnership",
            "outputs": [],
            "stateMutability": "nonpayable",
            "type": "function"
        },
        {
            "inputs": [
                {
                    "internalType": "uint64",
                    "name": "_blockCount",
                    "type": "uint64"
                }
            ],
            "name": "updateSessionBlock",
            "outputs": [],
            "stateMutability": "nonpayable",
            "type": "function"
        },
        {
            "inputs": [
                {
                    "internalType": "bytes32",
                    "name": "_name",
                    "type": "bytes32"
                }
            ],
            "name": "isTopicExists",
            "outputs": [
                {
                    "internalType": "bool",
                    "name": "",
                    "type": "bool"
                }
            ],
            "stateMutability": "view",
            "type": "function",
            "constant": true
        },
        {
            "inputs": [
                {
                    "internalType": "bytes32",
                    "name": "_topicName",
                    "type": "bytes32"
                },
                {
                    "internalType": "bytes32",
                    "name": "_optionName",
                    "type": "bytes32"
                }
            ],
            "name": "isOptionExists",
            "outputs": [
                {
                    "internalType": "bool",
                    "name": "",
                    "type": "bool"
                }
            ],
            "stateMutability": "view",
            "type": "function",
            "constant": true
        },
        {
            "inputs": [
                {
                    "internalType": "bytes32",
                    "name": "_name",
                    "type": "bytes32"
                }
            ],
            "name": "addTopic",
            "outputs": [],
            "stateMutability": "nonpayable",
            "type": "function"
        },
        {
            "inputs": [
                {
                    "internalType": "bytes32",
                    "name": "_topicName",
                    "type": "bytes32"
                },
                {
                    "internalType": "bytes32",
                    "name": "_optionName",
                    "type": "bytes32"
                }
            ],
            "name": "addOption",
            "outputs": [],
            "stateMutability": "nonpayable",
            "type": "function"
        },
        {
            "inputs": [
                {
                    "internalType": "bytes32",
                    "name": "_topicName",
                    "type": "bytes32"
                },
                {
                    "internalType": "bytes32",
                    "name": "_optionName",
                    "type": "bytes32"
                }
            ],
            "name": "addVote",
            "outputs": [],
            "stateMutability": "nonpayable",
            "type": "function"
        },
        {
            "inputs": [],
            "name": "getTopics",
            "outputs": [
                {
                    "internalType": "bytes32[]",
                    "name": "",
                    "type": "bytes32[]"
                }
            ],
            "stateMutability": "view",
            "type": "function",
            "constant": true
        },
        {
            "inputs": [
                {
                    "internalType": "bytes32",
                    "name": "_name",
                    "type": "bytes32"
                }
            ],
            "name": "getVoteOptions",
            "outputs": [
                {
                    "internalType": "bytes32[]",
                    "name": "",
                    "type": "bytes32[]"
                }
            ],
            "stateMutability": "view",
            "type": "function",
            "constant": true
        },
        {
            "inputs": [
                {
                    "internalType": "bytes32",
                    "name": "_name",
                    "type": "bytes32"
                }
            ],
            "name": "getVoters",
            "outputs": [
                {
                    "internalType": "address[]",
                    "name": "",
                    "type": "address[]"
                }
            ],
            "stateMutability": "view",
            "type": "function",
            "constant": true
        },
        {
            "inputs": [
                {
                    "internalType": "bytes32",
                    "name": "_topicName",
                    "type": "bytes32"
                },
                {
                    "internalType": "bytes32",
                    "name": "_optionName",
                    "type": "bytes32"
                }
            ],
            "name": "getVoteCount",
            "outputs": [
                {
                    "internalType": "uint256",
                    "name": "",
                    "type": "uint256"
                }
            ],
            "stateMutability": "view",
            "type": "function",
            "constant": true
        },
        {
            "inputs": [
                {
                    "internalType": "address",
                    "name": "_address",
                    "type": "address"
                }
            ],
            "name": "updateAdminContract",
            "outputs": [],
            "stateMutability": "nonpayable",
            "type": "function"
        }
    ],
    "bytecode": "0x60806040523480156200001157600080fd5b5062000032620000266200017e60201b60201c565b6200018660201b60201c565b600a600060146101000a81548167ffffffffffffffff021916908367ffffffffffffffff1602179055506040518060400160405280600881526020017f496e616374697665000000000000000000000000000000000000000000000000815250600160008060ff1681526020019081526020016000206000019081620000b99190620004c4565b506040518060400160405280600c81526020017f526567697374726174696f6e000000000000000000000000000000000000000081525060016000600160ff1681526020019081526020016000206000019081620001189190620004c4565b506040518060400160405280600681526020017f566f74696e67000000000000000000000000000000000000000000000000000081525060016000600260ff1681526020019081526020016000206000019081620001779190620004c4565b50620005ab565b600033905090565b60008060009054906101000a900473ffffffffffffffffffffffffffffffffffffffff169050816000806101000a81548173ffffffffffffffffffffffffffffffffffffffff021916908373ffffffffffffffffffffffffffffffffffffffff1602179055508173ffffffffffffffffffffffffffffffffffffffff168173ffffffffffffffffffffffffffffffffffffffff167f8be0079c531659141344cd1fd0a4f28419497f9722a3daafe3b4186f6b6457e060405160405180910390a35050565b600081519050919050565b7f4e487b7100000000000000000000000000000000000000000000000000000000600052604160045260246000fd5b7f4e487b7100000000000000000000000000000000000000000000000000000000600052602260045260246000fd5b60006002820490506001821680620002cc57607f821691505b602082108103620002e257620002e162000284565b5b50919050565b60008190508160005260206000209050919050565b60006020601f8301049050919050565b600082821b905092915050565b6000600883026200034c7fffffffffffffffffffffffffffffffffffffffffffffffffffffffffffffffff826200030d565b6200035886836200030d565b95508019841693508086168417925050509392505050565b6000819050919050565b6000819050919050565b6000620003a56200039f620003998462000370565b6200037a565b62000370565b9050919050565b6000819050919050565b620003c18362000384565b620003d9620003d082620003ac565b8484546200031a565b825550505050565b600090565b620003f0620003e1565b620003fd818484620003b6565b505050565b5b81811015620004255762000419600082620003e6565b60018101905062000403565b5050565b601f82111562000474576200043e81620002e8565b6200044984620002fd565b8101602085101562000459578190505b620004716200046885620002fd565b83018262000402565b50505b505050565b600082821c905092915050565b6000620004996000198460080262000479565b1980831691505092915050565b6000620004b4838362000486565b9150826002028217905092915050565b620004cf826200024a565b67ffffffffffffffff811115620004eb57620004ea62000255565b5b620004f78254620002b3565b6200050482828562000429565b600060209050601f8311600181146200053c576000841562000527578287015190505b620005338582620004a6565b865550620005a3565b601f1984166200054c86620002e8565b60005b8281101562000576578489015182556001820191506020850194506020810190506200054f565b8683101562000596578489015162000592601f89168262000486565b8355505b6001600288020188555050505b505050505050565b61233080620005bb6000396000f3fe608060405234801561001057600080fd5b50600436106101005760003560e01c80638da5cb5b11610097578063f2fde38b11610066578063f2fde38b146102a9578063f6180fc1146102c5578063fe0ae165146102e6578063fee01177146102f057610100565b80638da5cb5b146101fb578063c83d46d814610219578063ca413fbe14610249578063df5346801461027957610100565b80636d721171116100d35780636d72117114610175578063715018a6146101a557806372696cb4146101af5780638b4a781c146101cb57610100565b806335921b0814610105578063388d2c2414610121578063547199111461013d57806359905dbf14610159575b600080fd5b61011f600480360381019061011a91906116cd565b61030e565b005b61013b6004803603810190610136919061176b565b6106c4565b005b610157600480360381019061015291906117d8565b610747565b005b610173600480360381019061016e91906116cd565b6107ff565b005b61018f600480360381019061018a91906116cd565b610abf565b60405161019c919061181e565b60405180910390f35b6101ad610c19565b005b6101c960048036038101906101c49190611839565b610c2d565b005b6101e560048036038101906101e09190611839565b610d62565b6040516101f29190611924565b60405180910390f35b610203610e97565b6040516102109190611955565b60405180910390f35b610233600480360381019061022e91906116cd565b610ec0565b604051610240919061198b565b60405180910390f35b610263600480360381019061025e9190611839565b610ef7565b604051610270919061198b565b60405180910390f35b610293600480360381019061028e9190611839565b610f19565b6040516102a09190611a64565b60405180910390f35b6102c360048036038101906102be919061176b565b611018565b005b6102cd61109b565b6040516102dd9493929190611b32565b60405180910390f35b6102ee611342565b005b6102f86114f0565b6040516103059190611a64565b60405180910390f35b816000801b8103610354576040517f08c379a000000000000000000000000000000000000000000000000000000000815260040161034b90611bca565b60405180910390fd5b8261035e81610ef7565b61039d576040517f08c379a000000000000000000000000000000000000000000000000000000000815260040161039490611c36565b60405180910390fd5b826000801b81036103e3576040517f08c379a00000000000000000000000000000000000000000000000000000000081526004016103da90611bca565b60405180910390fd5b84846103ef8282610ec0565b61042e576040517f08c379a000000000000000000000000000000000000000000000000000000000815260040161042590611ca2565b60405180910390fd5b600460009054906101000a900473ffffffffffffffffffffffffffffffffffffffff1673ffffffffffffffffffffffffffffffffffffffff1663aaad0c84336040518263ffffffff1660e01b81526004016104899190611955565b602060405180830381865afa1580156104a6573d6000803e3d6000fd5b505050506040513d601f19601f820116820180604052508101906104ca9190611cee565b15801561050a57503373ffffffffffffffffffffffffffffffffffffffff166104f1610e97565b73ffffffffffffffffffffffffffffffffffffffff1614155b610549576040517f08c379a000000000000000000000000000000000000000000000000000000000815260040161054090611d67565b60405180910390fd5b60016000600160ff168152602001908152602001600020600101544311801561058c575060016000600260ff168152602001908152602001600020600101544311155b6105cb576040517f08c379a00000000000000000000000000000000000000000000000000000000081526004016105c290611dd3565b60405180910390fd5b600360008881526020019081526020016000206003016000878152602001908152602001600020600101600081548092919061060690611e22565b919050555060036000888152602001908152602001600020600101339080600181540180825580915050600190039060005260206000200160009091909190916101000a81548173ffffffffffffffffffffffffffffffffffffffff021916908373ffffffffffffffffffffffffffffffffffffffff1602179055507f0b2f654b7e608ce51a82ce8157e79c350ed670605e8985266ad89fc85060e74987336040516106b3929190611e79565b60405180910390a150505050505050565b6106cc611548565b80600460006101000a81548173ffffffffffffffffffffffffffffffffffffffff021916908373ffffffffffffffffffffffffffffffffffffffff1602179055507f54e4612788f90384e6843298d7854436f3a585b2c3831ab66abf1de63bfa6c2d8160405161073c9190611955565b60405180910390a150565b61074f611548565b60008167ffffffffffffffff161161079c576040517f08c379a000000000000000000000000000000000000000000000000000000000815260040161079390611f14565b60405180910390fd5b80600060146101000a81548167ffffffffffffffff021916908367ffffffffffffffff1602179055507fd7589a23ba7e3dbb2ed1efb64fe0569251d893256d832ecba9e47ad369fe3772816040516107f49190611f43565b60405180910390a150565b816000801b8103610845576040517f08c379a000000000000000000000000000000000000000000000000000000000815260040161083c90611bca565b60405180910390fd5b8261084f81610ef7565b61088e576040517f08c379a000000000000000000000000000000000000000000000000000000000815260040161088590611c36565b60405180910390fd5b826000801b81036108d4576040517f08c379a00000000000000000000000000000000000000000000000000000000081526004016108cb90611bca565b60405180910390fd5b600460009054906101000a900473ffffffffffffffffffffffffffffffffffffffff1673ffffffffffffffffffffffffffffffffffffffff1663aaad0c84336040518263ffffffff1660e01b815260040161092f9190611955565b602060405180830381865afa15801561094c573d6000803e3d6000fd5b505050506040513d601f19601f820116820180604052508101906109709190611cee565b6109af576040517f08c379a00000000000000000000000000000000000000000000000000000000081526004016109a690611faa565b60405180910390fd5b60016000600160ff16815260200190815260200160002060010154431115610a0c576040517f08c379a0000000000000000000000000000000000000000000000000000000008152600401610a0390612016565b60405180910390fd5b60006003600087815260200190815260200160002090508060020185908060018154018082558091505060019003906000526020600020016000909190919091505560008160030160008781526020019081526020016000209050816002018054905081600001819055507f8c59a0a666a2138dd67f6d84df9a132b35603c2dc0a874c3a60d6e9a40c6ebb687826000015488604051610aae93929190612036565b60405180910390a150505050505050565b6000826000801b8103610b07576040517f08c379a0000000000000000000000000000000000000000000000000000000008152600401610afe90611bca565b60405180910390fd5b83610b1181610ef7565b610b50576040517f08c379a0000000000000000000000000000000000000000000000000000000008152600401610b4790611c36565b60405180910390fd5b836000801b8103610b96576040517f08c379a0000000000000000000000000000000000000000000000000000000008152600401610b8d90611bca565b60405180910390fd5b8585610ba28282610ec0565b610be1576040517f08c379a0000000000000000000000000000000000000000000000000000000008152600401610bd890611ca2565b60405180910390fd5b600360008981526020019081526020016000206003016000888152602001908152602001600020600101549550505050505092915050565b610c21611548565b610c2b60006115c6565b565b806000801b8103610c73576040517f08c379a0000000000000000000000000000000000000000000000000000000008152600401610c6a90611bca565b60405180910390fd5b610c7b611548565b60016000600260ff168152602001908152602001600020600101544311610cd7576040517f08c379a0000000000000000000000000000000000000000000000000000000008152600401610cce906120b9565b60405180910390fd5b600282908060018154018082558091505060019003906000526020600020016000909190919091505560028054905060036000848152602001908152602001600020600001819055507fab02240a86babdc0c356c3168127f46748185f0293f1e817f4250695a263515860028054905083604051610d569291906120d9565b60405180910390a15050565b6060816000801b8103610daa576040517f08c379a0000000000000000000000000000000000000000000000000000000008152600401610da190611bca565b60405180910390fd5b82610db481610ef7565b610df3576040517f08c379a0000000000000000000000000000000000000000000000000000000008152600401610dea90611c36565b60405180910390fd5b60036000858152602001908152602001600020600101805480602002602001604051908101604052809291908181526020018280548015610e8957602002820191906000526020600020905b8160009054906101000a900473ffffffffffffffffffffffffffffffffffffffff1673ffffffffffffffffffffffffffffffffffffffff1681526020019060010190808311610e3f575b505050505092505050919050565b60008060009054906101000a900473ffffffffffffffffffffffffffffffffffffffff16905090565b6000806003600085815260200190815260200160002060030160008481526020019081526020016000206000015411905092915050565b6000806003600084815260200190815260200160002060000154119050919050565b6060816000801b8103610f61576040517f08c379a0000000000000000000000000000000000000000000000000000000008152600401610f5890611bca565b60405180910390fd5b82610f6b81610ef7565b610faa576040517f08c379a0000000000000000000000000000000000000000000000000000000008152600401610fa190611c36565b60405180910390fd5b6003600085815260200190815260200160002060020180548060200260200160405190810160405280929190818152602001828054801561100a57602002820191906000526020600020905b815481526020019060010190808311610ff6575b505050505092505050919050565b611020611548565b600073ffffffffffffffffffffffffffffffffffffffff168173ffffffffffffffffffffffffffffffffffffffff160361108f576040517f08c379a000000000000000000000000000000000000000000000000000000000815260040161108690612174565b60405180910390fd5b611098816115c6565b50565b6000606060008060004390506000600160008060ff168152602001908152602001600020600101549050600060016000600160ff168152602001908152602001600020600101549050600060016000600260ff1681526020019081526020016000206001015490508184116111c4576001806000600160ff1681526020019081526020016000206000018584828054611133906121c3565b80601f016020809104026020016040519081016040528092919081815260200182805461115f906121c3565b80156111ac5780601f10611181576101008083540402835291602001916111ac565b820191906000526020600020905b81548152906001019060200180831161118f57829003601f168201915b5050505050925097509750975097505050505061133c565b80841161128657600260016000600260ff16815260200190815260200160002060000185838280546111f5906121c3565b80601f0160208091040260200160405190810160405280929190818152602001828054611221906121c3565b801561126e5780601f106112435761010080835404028352916020019161126e565b820191906000526020600020905b81548152906001019060200180831161125157829003601f168201915b5050505050925097509750975097505050505061133c565b6000600160008060ff16815260200190815260200160002060000185858280546112af906121c3565b80601f01602080910402602001604051908101604052809291908181526020018280546112db906121c3565b80156113285780601f106112fd57610100808354040283529160200191611328565b820191906000526020600020905b81548152906001019060200180831161130b57829003601f168201915b505050505092509750975097509750505050505b90919293565b61134a611548565b60016000600260ff1681526020019081526020016000206001015443116113a6576040517f08c379a000000000000000000000000000000000000000000000000000000000815260040161139d906120b9565b60405180910390fd5b600060149054906101000a900467ffffffffffffffff1667ffffffffffffffff16436113d291906121f4565b60016000600160ff16815260200190815260200160002060010181905550600060149054906101000a900467ffffffffffffffff1660026114139190612228565b67ffffffffffffffff164361142891906121f4565b60016000600260ff16815260200190815260200160002060010181905550600060149054906101000a900467ffffffffffffffff1660036114699190612228565b67ffffffffffffffff164361147e91906121f4565b600160008060ff168152602001908152602001600020600101819055507fce6cbe3431d9ec9ac1a82a77a80bb9120b0250307afb3ed08873ea84c52b70c04360016000600360ff168152602001908152602001600020600101546040516114e6929190612265565b60405180910390a1565b6060600280548060200260200160405190810160405280929190818152602001828054801561153e57602002820191906000526020600020905b81548152602001906001019080831161152a575b5050505050905090565b61155061168a565b73ffffffffffffffffffffffffffffffffffffffff1661156e610e97565b73ffffffffffffffffffffffffffffffffffffffff16146115c4576040517f08c379a00000000000000000000000000000000000000000000000000000000081526004016115bb906122da565b60405180910390fd5b565b60008060009054906101000a900473ffffffffffffffffffffffffffffffffffffffff169050816000806101000a81548173ffffffffffffffffffffffffffffffffffffffff021916908373ffffffffffffffffffffffffffffffffffffffff1602179055508173ffffffffffffffffffffffffffffffffffffffff168173ffffffffffffffffffffffffffffffffffffffff167f8be0079c531659141344cd1fd0a4f28419497f9722a3daafe3b4186f6b6457e060405160405180910390a35050565b600033905090565b600080fd5b6000819050919050565b6116aa81611697565b81146116b557600080fd5b50565b6000813590506116c7816116a1565b92915050565b600080604083850312156116e4576116e3611692565b5b60006116f2858286016116b8565b9250506020611703858286016116b8565b9150509250929050565b600073ffffffffffffffffffffffffffffffffffffffff82169050919050565b60006117388261170d565b9050919050565b6117488161172d565b811461175357600080fd5b50565b6000813590506117658161173f565b92915050565b60006020828403121561178157611780611692565b5b600061178f84828501611756565b91505092915050565b600067ffffffffffffffff82169050919050565b6117b581611798565b81146117c057600080fd5b50565b6000813590506117d2816117ac565b92915050565b6000602082840312156117ee576117ed611692565b5b60006117fc848285016117c3565b91505092915050565b6000819050919050565b61181881611805565b82525050565b6000602082019050611833600083018461180f565b92915050565b60006020828403121561184f5761184e611692565b5b600061185d848285016116b8565b91505092915050565b600081519050919050565b600082825260208201905092915050565b6000819050602082019050919050565b61189b8161172d565b82525050565b60006118ad8383611892565b60208301905092915050565b6000602082019050919050565b60006118d182611866565b6118db8185611871565b93506118e683611882565b8060005b838110156119175781516118fe88826118a1565b9750611909836118b9565b9250506001810190506118ea565b5085935050505092915050565b6000602082019050818103600083015261193e81846118c6565b905092915050565b61194f8161172d565b82525050565b600060208201905061196a6000830184611946565b92915050565b60008115159050919050565b61198581611970565b82525050565b60006020820190506119a0600083018461197c565b92915050565b600081519050919050565b600082825260208201905092915050565b6000819050602082019050919050565b6119db81611697565b82525050565b60006119ed83836119d2565b60208301905092915050565b6000602082019050919050565b6000611a11826119a6565b611a1b81856119b1565b9350611a26836119c2565b8060005b83811015611a57578151611a3e88826119e1565b9750611a49836119f9565b925050600181019050611a2a565b5085935050505092915050565b60006020820190508181036000830152611a7e8184611a06565b905092915050565b600060ff82169050919050565b611a9c81611a86565b82525050565b600081519050919050565b600082825260208201905092915050565b60005b83811015611adc578082015181840152602081019050611ac1565b60008484015250505050565b6000601f19601f8301169050919050565b6000611b0482611aa2565b611b0e8185611aad565b9350611b1e818560208601611abe565b611b2781611ae8565b840191505092915050565b6000608082019050611b476000830187611a93565b8181036020830152611b598186611af9565b9050611b68604083018561180f565b611b75606083018461180f565b95945050505050565b7f4e616d652063616e277420626520656d70747900000000000000000000000000600082015250565b6000611bb4601383611aad565b9150611bbf82611b7e565b602082019050919050565b60006020820190508181036000830152611be381611ba7565b9050919050565b7f546f706963206e6f7420666f756e640000000000000000000000000000000000600082015250565b6000611c20600f83611aad565b9150611c2b82611bea565b602082019050919050565b60006020820190508181036000830152611c4f81611c13565b9050919050565b7f4f7074696f6e206e6f7420666f756e6400000000000000000000000000000000600082015250565b6000611c8c601083611aad565b9150611c9782611c56565b602082019050919050565b60006020820190508181036000830152611cbb81611c7f565b9050919050565b611ccb81611970565b8114611cd657600080fd5b50565b600081519050611ce881611cc2565b92915050565b600060208284031215611d0457611d03611692565b5b6000611d1284828501611cd9565b91505092915050565b7f4f6e6c79207573657220697320616c6c6f776564000000000000000000000000600082015250565b6000611d51601483611aad565b9150611d5c82611d1b565b602082019050919050565b60006020820190508181036000830152611d8081611d44565b9050919050565b7f4f6e6c7920766f74696e6720697320616c6c6f77656400000000000000000000600082015250565b6000611dbd601683611aad565b9150611dc882611d87565b602082019050919050565b60006020820190508181036000830152611dec81611db0565b9050919050565b7f4e487b7100000000000000000000000000000000000000000000000000000000600052601160045260246000fd5b6000611e2d82611805565b91507fffffffffffffffffffffffffffffffffffffffffffffffffffffffffffffffff8203611e5f57611e5e611df3565b5b600182019050919050565b611e7381611697565b82525050565b6000604082019050611e8e6000830185611e6a565b611e9b6020830184611946565b9392505050565b7f4e657720626c6f636b20636f756e74206d75737420626520677265617465722060008201527f7468616e20300000000000000000000000000000000000000000000000000000602082015250565b6000611efe602683611aad565b9150611f0982611ea2565b604082019050919050565b60006020820190508181036000830152611f2d81611ef1565b9050919050565b611f3d81611798565b82525050565b6000602082019050611f586000830184611f34565b92915050565b7f4f6e6c792061646d696e20697320616c6c6f7765640000000000000000000000600082015250565b6000611f94601583611aad565b9150611f9f82611f5e565b602082019050919050565b60006020820190508181036000830152611fc381611f87565b9050919050565b7f4f6e6c7920726567697374726174696f6e20697320616c6c6f77656400000000600082015250565b6000612000601c83611aad565b915061200b82611fca565b602082019050919050565b6000602082019050818103600083015261202f81611ff3565b9050919050565b600060608201905061204b6000830186611e6a565b612058602083018561180f565b6120656040830184611e6a565b949350505050565b7f566f74652073657373696f6e206d75737420626520696e616374697665000000600082015250565b60006120a3601d83611aad565b91506120ae8261206d565b602082019050919050565b600060208201905081810360008301526120d281612096565b9050919050565b60006040820190506120ee600083018561180f565b6120fb6020830184611e6a565b9392505050565b7f4f776e61626c653a206e6577206f776e657220697320746865207a65726f206160008201527f6464726573730000000000000000000000000000000000000000000000000000602082015250565b600061215e602683611aad565b915061216982612102565b604082019050919050565b6000602082019050818103600083015261218d81612151565b9050919050565b7f4e487b7100000000000000000000000000000000000000000000000000000000600052602260045260246000fd5b600060028204905060018216806121db57607f821691505b6020821081036121ee576121ed612194565b5b50919050565b60006121ff82611805565b915061220a83611805565b925082820190508082111561222257612221611df3565b5b92915050565b600061223382611798565b915061223e83611798565b925082820261224c81611798565b915080821461225e5761225d611df3565b5b5092915050565b600060408201905061227a600083018561180f565b612287602083018461180f565b9392505050565b7f4f776e61626c653a2063616c6c6572206973206e6f7420746865206f776e6572600082015250565b60006122c4602083611aad565b91506122cf8261228e565b602082019050919050565b600060208201905081810360008301526122f3816122b7565b905091905056fea2646970667358221220e2a20897abdfba37c0956e6897be3bb550f162504a1ffd486b5bfd7db45c35cd64736f6c63430008110033",
    "immutableReferences": {},
    "source": "// SPDX-License-Identifier: MIT\npragma solidity >=0.4.22 <0.9.0;\n\nimport \"./Admin.sol\";\nimport \"./Session.sol\";\n\ncontract Vote is Session {\n  struct Option{\n    uint256 index; // 1 based\n    uint votes;\n  }\n\n  struct Topic {\n    uint256 index; // 1 based\n    address[] voters;\n    bytes32[] options;\n    mapping(bytes32 => Option) nameToOption;\n  }\n\n  bytes32[] private topics;\n  mapping(bytes32 => Topic) private nameToTopic;\n  Admin adminContract;\n\n  event Voted(bytes32 topicName, address voter);\n  event TopicAdded(uint256 topicId, bytes32 name);\n  event OptionAdded(bytes32 topicName, uint256 index, bytes32 name);\n  event AdminUpdated(address _address);\n\n  modifier validName(bytes32 _name) {\n    require(_name != 0, \"Name can't be empty\");\n    _;\n  }\n\n  modifier topicExist(bytes32 _name) {\n    require(isTopicExists(_name), \"Topic not found\");\n    _;\n  }\n\n  modifier optionExist(bytes32 _topicName, bytes32 _optionName) {\n    require(isOptionExists(_topicName, _optionName), \"Option not found\");\n    _;\n  }\n\n  modifier onlyAdmin() {\n    require(adminContract.isExisted(msg.sender), \"Only admin is allowed\");\n    _;\n  }\n\n  modifier onlyUser() {\n    require(\n      !adminContract.isExisted(msg.sender) && \n        owner() != msg.sender, \n      \"Only user is allowed\");\n    _;\n  }\n\n  function isTopicExists(bytes32 _name) public view returns (bool) {\n    return nameToTopic[_name].index > 0;\n  }\n\n  function isOptionExists(bytes32 _topicName, bytes32 _optionName) \n    public view returns (bool) \n  {\n    return nameToTopic[_topicName].nameToOption[_optionName].index > 0;\n  }\n\n  function addTopic(bytes32 _name) external validName(_name) onlyOwner onlyInActive{\n    topics.push(_name);\n    nameToTopic[_name].index = topics.length;\n    emit TopicAdded(topics.length, _name);\n  }\n\n  function addOption(bytes32 _topicName, bytes32 _optionName) external \n    validName(_topicName) topicExist(_topicName) validName(_optionName)\n    onlyAdmin onlyRegister \n  {\n    // push new option to topic\n    Topic storage _topic = nameToTopic[_topicName];\n    _topic.options.push(_optionName);\n\n    // Initilize option index\n    Option storage _option = _topic.nameToOption[_optionName];\n    _option.index = _topic.options.length;\n\n    emit OptionAdded(_topicName, _option.index, _optionName);\n  }\n\n  function addVote(bytes32 _topicName, bytes32 _optionName) external \n    validName(_topicName) topicExist(_topicName) \n    validName(_optionName) optionExist(_topicName, _optionName) \n    onlyUser onlyVote\n  {\n    // Increment vote count in option and add address to topic\n    nameToTopic[_topicName].nameToOption[_optionName].votes++;\n    nameToTopic[_topicName].voters.push(msg.sender);\n    emit Voted(_topicName, msg.sender);\n  }\n\n  function getTopics() external view returns (bytes32[] memory) {\n    return topics;\n  }\n\n  function getVoteOptions(bytes32 _name) external \n    validName(_name) topicExist(_name) view returns (bytes32[] memory) \n  {\n    return nameToTopic[_name].options;\n  }\n\n  function getVoters(bytes32 _name) external validName(_name) topicExist(_name) \n    view returns (address[] memory) \n  {\n    return nameToTopic[_name].voters;\n  }\n\n  function getVoteCount(bytes32 _topicName, bytes32 _optionName) external\n   validName(_topicName) topicExist(_topicName) validName(_optionName) \n   optionExist(_topicName, _optionName) view returns (uint256) \n  {\n    return nameToTopic[_topicName].nameToOption[_optionName].votes;\n  }\n\n  function updateAdminContract(address _address) external onlyOwner {\n    adminContract = Admin(_address);\n    emit AdminUpdated(_address);\n  }\n}\n",
    "sourcePath": "/Users/chetra_seng/voting-dapp/contracts/Vote.sol",
    "compiler": {
        "name": "solc",
        "version": "0.8.17+commit.8df45f5f.Emscripten.clang"
    },
    "schemaVersion": "3.4.8",
    "updatedAt": "2022-11-11T18:23:39.543Z",
    "networkType": "ethereum",
    "devdoc": {
        "kind": "dev",
        "methods": {
            "owner()": {
                "details": "Returns the address of the current owner."
            },
            "renounceOwnership()": {
                "details": "Leaves the contract without owner. It will not be possible to call `onlyOwner` functions anymore. Can only be called by the current owner. NOTE: Renouncing ownership will leave the contract without an owner, thereby removing any functionality that is only available to the owner."
            },
            "transferOwnership(address)": {
                "details": "Transfers ownership of the contract to a new account (`newOwner`). Can only be called by the current owner."
            }
        },
        "version": 1
    },
    "userdoc": {
        "kind": "user",
        "methods": {},
        "version": 1
    }
}